{
  "contractName": "FrenchieDAO",
  "abi": [
    {
      "inputs": [
        {
          "internalType": "address",
          "name": "_frenddress",
          "type": "address"
        }
      ],
      "stateMutability": "nonpayable",
      "type": "constructor"
    },
    {
      "anonymous": false,
      "inputs": [
        {
          "indexed": true,
          "internalType": "address",
          "name": "owner",
          "type": "address"
        },
        {
          "indexed": true,
          "internalType": "address",
          "name": "spender",
          "type": "address"
        },
        {
          "indexed": false,
          "internalType": "uint256",
          "name": "value",
          "type": "uint256"
        }
      ],
      "name": "Approval",
      "type": "event"
    },
    {
      "anonymous": false,
      "inputs": [
        {
          "indexed": true,
          "internalType": "address",
          "name": "from",
          "type": "address"
        },
        {
          "indexed": true,
          "internalType": "address",
          "name": "to",
          "type": "address"
        },
        {
          "indexed": false,
          "internalType": "uint256",
          "name": "value",
          "type": "uint256"
        }
      ],
      "name": "Transfer",
      "type": "event"
    },
    {
      "anonymous": false,
      "inputs": [
        {
          "indexed": true,
          "internalType": "address",
          "name": "admin",
          "type": "address"
        },
        {
          "indexed": false,
          "internalType": "address",
          "name": "removedAdmin",
          "type": "address"
        }
      ],
      "name": "adminRemoved",
      "type": "event"
    },
    {
      "anonymous": false,
      "inputs": [
        {
          "indexed": true,
          "internalType": "address",
          "name": "voter",
          "type": "address"
        },
        {
          "indexed": false,
          "internalType": "uint256",
          "name": "amount",
          "type": "uint256"
        }
      ],
      "name": "frenWithdrawn",
      "type": "event"
    },
    {
      "anonymous": false,
      "inputs": [
        {
          "indexed": true,
          "internalType": "address",
          "name": "admin",
          "type": "address"
        },
        {
          "indexed": false,
          "internalType": "address",
          "name": "newAdmin",
          "type": "address"
        }
      ],
      "name": "newAdminAdded",
      "type": "event"
    },
    {
      "anonymous": false,
      "inputs": [
        {
          "indexed": true,
          "internalType": "address",
          "name": "proposer",
          "type": "address"
        },
        {
          "indexed": false,
          "internalType": "string",
          "name": "question",
          "type": "string"
        }
      ],
      "name": "proposalCreated",
      "type": "event"
    },
    {
      "anonymous": false,
      "inputs": [
        {
          "indexed": true,
          "internalType": "address",
          "name": "voter",
          "type": "address"
        },
        {
          "indexed": false,
          "internalType": "string",
          "name": "question",
          "type": "string"
        },
        {
          "indexed": false,
          "internalType": "string",
          "name": "option",
          "type": "string"
        }
      ],
      "name": "votedForProposal",
      "type": "event"
    },
    {
      "inputs": [],
      "name": "DOMAIN_TYPEHASH",
      "outputs": [
        {
          "internalType": "bytes32",
          "name": "",
          "type": "bytes32"
        }
      ],
      "stateMutability": "view",
      "type": "function"
    },
    {
      "inputs": [
        {
          "internalType": "address",
          "name": "owner",
          "type": "address"
        },
        {
          "internalType": "address",
          "name": "spender",
          "type": "address"
        }
      ],
      "name": "allowance",
      "outputs": [
        {
          "internalType": "uint256",
          "name": "",
          "type": "uint256"
        }
      ],
      "stateMutability": "view",
      "type": "function"
    },
    {
      "inputs": [
        {
          "internalType": "address",
          "name": "spender",
          "type": "address"
        },
        {
          "internalType": "uint256",
          "name": "amount",
          "type": "uint256"
        }
      ],
      "name": "approve",
      "outputs": [
        {
          "internalType": "bool",
          "name": "",
          "type": "bool"
        }
      ],
      "stateMutability": "nonpayable",
      "type": "function"
    },
    {
      "inputs": [
        {
          "internalType": "address",
          "name": "account",
          "type": "address"
        }
      ],
      "name": "balanceOf",
      "outputs": [
        {
          "internalType": "uint256",
          "name": "",
          "type": "uint256"
        }
      ],
      "stateMutability": "view",
      "type": "function"
    },
    {
      "inputs": [],
      "name": "decimals",
      "outputs": [
        {
          "internalType": "uint8",
          "name": "",
          "type": "uint8"
        }
      ],
      "stateMutability": "view",
      "type": "function"
    },
    {
      "inputs": [
        {
          "internalType": "address",
          "name": "spender",
          "type": "address"
        },
        {
          "internalType": "uint256",
          "name": "subtractedValue",
          "type": "uint256"
        }
      ],
      "name": "decreaseAllowance",
      "outputs": [
        {
          "internalType": "bool",
          "name": "",
          "type": "bool"
        }
      ],
      "stateMutability": "nonpayable",
      "type": "function"
    },
    {
      "inputs": [],
      "name": "frenAddress",
      "outputs": [
        {
          "internalType": "address",
          "name": "",
          "type": "address"
        }
      ],
      "stateMutability": "view",
      "type": "function"
    },
    {
      "inputs": [
        {
          "internalType": "address",
          "name": "spender",
          "type": "address"
        },
        {
          "internalType": "uint256",
          "name": "addedValue",
          "type": "uint256"
        }
      ],
      "name": "increaseAllowance",
      "outputs": [
        {
          "internalType": "bool",
          "name": "",
          "type": "bool"
        }
      ],
      "stateMutability": "nonpayable",
      "type": "function"
    },
    {
      "inputs": [],
      "name": "name",
      "outputs": [
        {
          "internalType": "string",
          "name": "",
          "type": "string"
        }
      ],
      "stateMutability": "view",
      "type": "function"
    },
    {
      "inputs": [
        {
          "internalType": "uint256",
          "name": "",
          "type": "uint256"
        }
      ],
      "name": "proposals",
      "outputs": [
        {
          "internalType": "address",
          "name": "",
          "type": "address"
        }
      ],
      "stateMutability": "view",
      "type": "function"
    },
    {
      "inputs": [],
      "name": "symbol",
      "outputs": [
        {
          "internalType": "string",
          "name": "",
          "type": "string"
        }
      ],
      "stateMutability": "view",
      "type": "function"
    },
    {
      "inputs": [],
      "name": "topOption",
      "outputs": [
        {
          "internalType": "string",
          "name": "",
          "type": "string"
        }
      ],
      "stateMutability": "view",
      "type": "function"
    },
    {
      "inputs": [],
      "name": "topVotes",
      "outputs": [
        {
          "internalType": "uint256",
          "name": "",
          "type": "uint256"
        }
      ],
      "stateMutability": "view",
      "type": "function"
    },
    {
      "inputs": [],
      "name": "totalSupply",
      "outputs": [
        {
          "internalType": "uint256",
          "name": "",
          "type": "uint256"
        }
      ],
      "stateMutability": "view",
      "type": "function"
    },
    {
      "inputs": [
        {
          "internalType": "address",
          "name": "recipient",
          "type": "address"
        },
        {
          "internalType": "uint256",
          "name": "amount",
          "type": "uint256"
        }
      ],
      "name": "transfer",
      "outputs": [
        {
          "internalType": "bool",
          "name": "",
          "type": "bool"
        }
      ],
      "stateMutability": "nonpayable",
      "type": "function"
    },
    {
      "inputs": [
        {
          "internalType": "address",
          "name": "sender",
          "type": "address"
        },
        {
          "internalType": "address",
          "name": "recipient",
          "type": "address"
        },
        {
          "internalType": "uint256",
          "name": "amount",
          "type": "uint256"
        }
      ],
      "name": "transferFrom",
      "outputs": [
        {
          "internalType": "bool",
          "name": "",
          "type": "bool"
        }
      ],
      "stateMutability": "nonpayable",
      "type": "function"
    },
    {
      "inputs": [],
      "name": "getFrenBalance",
      "outputs": [
        {
          "internalType": "uint256",
          "name": "",
          "type": "uint256"
        }
      ],
      "stateMutability": "view",
      "type": "function"
    },
    {
      "inputs": [],
      "name": "getProposals",
      "outputs": [
        {
          "internalType": "address[]",
          "name": "",
          "type": "address[]"
        }
      ],
      "stateMutability": "view",
      "type": "function"
    },
    {
      "inputs": [
        {
          "internalType": "address",
          "name": "_addr",
          "type": "address"
        }
      ],
      "name": "setFrenAddress",
      "outputs": [],
      "stateMutability": "nonpayable",
      "type": "function"
    },
    {
      "inputs": [],
      "name": "getBlockNumber",
      "outputs": [
        {
          "internalType": "uint256",
          "name": "",
          "type": "uint256"
        }
      ],
      "stateMutability": "view",
      "type": "function"
    },
    {
      "inputs": [
        {
          "internalType": "string",
          "name": "_proposalQuestion",
          "type": "string"
        },
        {
          "internalType": "address",
          "name": "_proposer",
          "type": "address"
        },
        {
          "internalType": "string[]",
          "name": "_options",
          "type": "string[]"
        },
        {
          "internalType": "string[]",
          "name": "_optionImgs",
          "type": "string[]"
        },
        {
          "internalType": "uint256",
          "name": "_endBlock",
          "type": "uint256"
        }
      ],
      "name": "createProposal",
      "outputs": [],
      "stateMutability": "nonpayable",
      "type": "function"
    },
    {
      "inputs": [
        {
          "internalType": "address",
          "name": "_proposal",
          "type": "address"
        }
      ],
      "name": "getProposal",
      "outputs": [
        {
          "internalType": "string",
          "name": "",
          "type": "string"
        },
        {
          "internalType": "address",
          "name": "",
          "type": "address"
        },
        {
          "internalType": "string[]",
          "name": "",
          "type": "string[]"
        },
        {
          "internalType": "string[]",
          "name": "",
          "type": "string[]"
        },
        {
          "internalType": "uint256[]",
          "name": "",
          "type": "uint256[]"
        },
        {
          "internalType": "uint256",
          "name": "",
          "type": "uint256"
        }
      ],
      "stateMutability": "view",
      "type": "function"
    },
    {
      "inputs": [
        {
          "internalType": "uint256",
          "name": "_amount",
          "type": "uint256"
        },
        {
          "internalType": "uint256",
          "name": "_optionIndex",
          "type": "uint256"
        },
        {
          "internalType": "address",
          "name": "_proposalAddr",
          "type": "address"
        }
      ],
      "name": "voteForProposal",
      "outputs": [],
      "stateMutability": "nonpayable",
      "type": "function"
    },
    {
      "inputs": [],
      "name": "withdrawFren",
      "outputs": [],
      "stateMutability": "nonpayable",
      "type": "function"
    },
    {
      "inputs": [
        {
          "internalType": "address",
          "name": "_admin",
          "type": "address"
        }
      ],
      "name": "addAdmin",
      "outputs": [],
      "stateMutability": "nonpayable",
      "type": "function"
    },
    {
      "inputs": [
        {
          "internalType": "address",
          "name": "_admin",
          "type": "address"
        }
      ],
      "name": "removeAdmin",
      "outputs": [],
      "stateMutability": "nonpayable",
      "type": "function"
    },
    {
      "inputs": [
        {
          "internalType": "uint256",
          "name": "amount",
          "type": "uint256"
        }
      ],
      "name": "depositETH",
      "outputs": [],
      "stateMutability": "payable",
      "type": "function"
    }
  ],
  "bytecode": "0x60806040523480156200001157600080fd5b50604051620044ee380380620044ee8339818101604052810190620000379190620002bf565b6040518060400160405280600b81526020017f4672656e6368696544414f0000000000000000000000000000000000000000008152506040518060400160405280600781526020017f4672656e44414f000000000000000000000000000000000000000000000000008152508160039080519060200190620000bb929190620001f9565b508060049080519060200190620000d4929190620001f9565b506012600560006101000a81548160ff021916908360ff16021790555050506001600860003373ffffffffffffffffffffffffffffffffffffffff1673ffffffffffffffffffffffffffffffffffffffff16815260200190815260200160002060000160006101000a81548160ff02191690831515021790555080600560016101000a81548173ffffffffffffffffffffffffffffffffffffffff021916908373ffffffffffffffffffffffffffffffffffffffff160217905550600560019054906101000a900473ffffffffffffffffffffffffffffffffffffffff16600660006101000a81548173ffffffffffffffffffffffffffffffffffffffff021916908373ffffffffffffffffffffffffffffffffffffffff1602179055505062000339565b828054600181600116156101000203166002900490600052602060002090601f016020900481019282601f106200023c57805160ff19168380011785556200026d565b828001600101855582156200026d579182015b828111156200026c5782518255916020019190600101906200024f565b5b5090506200027c919062000280565b5090565b620002a591905b80821115620002a157600081600090555060010162000287565b5090565b90565b600081519050620002b9816200031f565b92915050565b600060208284031215620002d257600080fd5b6000620002e284828501620002a8565b91505092915050565b6000620002f882620002ff565b9050919050565b600073ffffffffffffffffffffffffffffffffffffffff82169050919050565b6200032a81620002eb565b81146200033657600080fd5b50565b6141a580620003496000396000f3fe6080604052600436106101b9576000357c01000000000000000000000000000000000000000000000000000000009004806362564c4811610109578063a457c2d7116100a7578063c023bdb311610081578063c023bdb3146105ee578063dd62ed3e14610619578063eae24c7714610656578063eb8b98111461067f576101b9565b8063a457c2d71461054b578063a9059cbb14610588578063be3f8148146105c5576101b9565b8063739917bc116100e3578063739917bc146104b35780638f9ebf67146104de57806395d89b41146104f5578063a2f1f25f14610520576101b9565b806362564c4814610422578063704802751461044d57806370a0823114610476576101b9565b806323b872dd116101765780633950935111610150578063395093511461037357806342cbb15c146103b05780635358fbda146103db57806355032e59146103f7576101b9565b806323b872dd146102e2578063312be5bf1461031f578063313ce56714610348576101b9565b8063013cf08b146101be57806306fdde03146101fb578063095ea7b3146102265780631785f53c1461026357806318160ddd1461028c57806320606b70146102b7575b600080fd5b3480156101ca57600080fd5b506101e560048036038101906101e09190613350565b6106c1565b6040516101f29190613b06565b60405180910390f35b34801561020757600080fd5b506102106106fd565b60405161021d9190613bf4565b60405180910390f35b34801561023257600080fd5b5061024d6004803603810190610248919061322c565b61079f565b60405161025a9190613bbe565b60405180910390f35b34801561026f57600080fd5b5061028a60048036038101906102859190613178565b6107bd565b005b34801561029857600080fd5b506102a16108f8565b6040516102ae9190613e0a565b60405180910390f35b3480156102c357600080fd5b506102cc610902565b6040516102d99190613bd9565b60405180910390f35b3480156102ee57600080fd5b50610309600480360381019061030491906131dd565b610919565b6040516103169190613bbe565b60405180910390f35b34801561032b57600080fd5b5061034660048036038101906103419190613291565b6109f2565b005b34801561035457600080fd5b5061035d610e17565b60405161036a9190613e25565b60405180910390f35b34801561037f57600080fd5b5061039a6004803603810190610395919061322c565b610e2e565b6040516103a79190613bbe565b60405180910390f35b3480156103bc57600080fd5b506103c5610ee1565b6040516103d29190613e0a565b60405180910390f35b6103f560048036038101906103f09190613350565b610ee9565b005b34801561040357600080fd5b5061040c610ef8565b6040516104199190613bf4565b60405180910390f35b34801561042e57600080fd5b50610437610f96565b6040516104449190613b9c565b60405180910390f35b34801561045957600080fd5b50610474600480360381019061046f9190613178565b611024565b005b34801561048257600080fd5b5061049d60048036038101906104989190613178565b61115f565b6040516104aa9190613e0a565b60405180910390f35b3480156104bf57600080fd5b506104c86111a7565b6040516104d59190613e0a565b60405180910390f35b3480156104ea57600080fd5b506104f3611275565b005b34801561050157600080fd5b5061050a61173e565b6040516105179190613bf4565b60405180910390f35b34801561052c57600080fd5b506105356117e0565b6040516105429190613b06565b60405180910390f35b34801561055757600080fd5b50610572600480360381019061056d919061322c565b611806565b60405161057f9190613bbe565b60405180910390f35b34801561059457600080fd5b506105af60048036038101906105aa919061322c565b6118d3565b6040516105bc9190613bbe565b60405180910390f35b3480156105d157600080fd5b506105ec60048036038101906105e79190613178565b6118f1565b005b3480156105fa57600080fd5b50610603611a27565b6040516106109190613e0a565b60405180910390f35b34801561062557600080fd5b50610640600480360381019061063b91906131a1565b611a2d565b60405161064d9190613e0a565b60405180910390f35b34801561066257600080fd5b5061067d600480360381019061067891906133a2565b611ab4565b005b34801561068b57600080fd5b506106a660048036038101906106a19190613178565b6120d5565b6040516106b896959493929190613c16565b60405180910390f35b600d81815481106106ce57fe5b906000526020600020016000915054906101000a900473ffffffffffffffffffffffffffffffffffffffff1681565b606060038054600181600116156101000203166002900480601f0160208091040260200160405190810160405280929190818152602001828054600181600116156101000203166002900480156107955780601f1061076a57610100808354040283529160200191610795565b820191906000526020600020905b81548152906001019060200180831161077857829003601f168201915b5050505050905090565b60006107b36107ac612557565b848461255f565b6001905092915050565b600860003373ffffffffffffffffffffffffffffffffffffffff1673ffffffffffffffffffffffffffffffffffffffff16815260200190815260200160002060000160009054906101000a900460ff1661084c576040517f08c379a000000000000000000000000000000000000000000000000000000000815260040161084390613d2a565b60405180910390fd5b6000600860008373ffffffffffffffffffffffffffffffffffffffff1673ffffffffffffffffffffffffffffffffffffffff16815260200190815260200160002060000160006101000a81548160ff0219169083151502179055503373ffffffffffffffffffffffffffffffffffffffff167fedbf84ad6d9444bd2820ff443e5a48c589f1b441420360448a2a0b94d66c4a12826040516108ed9190613b06565b60405180910390a250565b6000600254905090565b60405161090e90613af1565b604051809103902081565b600061092684848461272a565b6109e784610932612557565b6109e28560405180606001604052806028815260200161412360289139600160008b73ffffffffffffffffffffffffffffffffffffffff1673ffffffffffffffffffffffffffffffffffffffff1681526020019081526020016000206000610998612557565b73ffffffffffffffffffffffffffffffffffffffff1673ffffffffffffffffffffffffffffffffffffffff168152602001908152602001600020546129bf9092919063ffffffff16565b61255f565b600190509392505050565b600860003373ffffffffffffffffffffffffffffffffffffffff1673ffffffffffffffffffffffffffffffffffffffff16815260200190815260200160002060000160009054906101000a900460ff16610a81576040517f08c379a0000000000000000000000000000000000000000000000000000000008152600401610a7890613d2a565b60405180910390fd5b84600c60003373ffffffffffffffffffffffffffffffffffffffff1673ffffffffffffffffffffffffffffffffffffffff1681526020019081526020016000206000019080519060200190610ad7929190612e1a565b5083600c60003373ffffffffffffffffffffffffffffffffffffffff1673ffffffffffffffffffffffffffffffffffffffff16815260200190815260200160002060010160006101000a81548173ffffffffffffffffffffffffffffffffffffffff021916908373ffffffffffffffffffffffffffffffffffffffff16021790555082600c60003373ffffffffffffffffffffffffffffffffffffffff1673ffffffffffffffffffffffffffffffffffffffff1681526020019081526020016000206002019080519060200190610baf929190612e9a565b5081600c60003373ffffffffffffffffffffffffffffffffffffffff1673ffffffffffffffffffffffffffffffffffffffff1681526020019081526020016000206003019080519060200190610c06929190612e9a565b5080600c60003373ffffffffffffffffffffffffffffffffffffffff1673ffffffffffffffffffffffffffffffffffffffff16815260200190815260200160002060050181905550600c60003373ffffffffffffffffffffffffffffffffffffffff1673ffffffffffffffffffffffffffffffffffffffff1681526020019081526020016000206004016000610c9c9190612efa565b60008090505b8351811015610d2257600c60003373ffffffffffffffffffffffffffffffffffffffff1673ffffffffffffffffffffffffffffffffffffffff168152602001908152602001600020600401600090806001815401808255809150506001900390600052602060002001600090919091909150558080600101915050610ca2565b5060405180602001604052806000815250600a9080519060200190610d48929190612e1a565b506000600b81905550600d6000610d5f9190612f1b565b600d339080600181540180825580915050600190039060005260206000200160009091909190916101000a81548173ffffffffffffffffffffffffffffffffffffffff021916908373ffffffffffffffffffffffffffffffffffffffff1602179055508373ffffffffffffffffffffffffffffffffffffffff167ff6683c1ffe46b98aee13437382371394d1eeaa0fe5fb4c32fe4b199c02b48f8a86604051610e089190613bf4565b60405180910390a25050505050565b6000600560009054906101000a900460ff16905090565b6000610ed7610e3b612557565b84610ed28560016000610e4c612557565b73ffffffffffffffffffffffffffffffffffffffff1673ffffffffffffffffffffffffffffffffffffffff16815260200190815260200160002060008973ffffffffffffffffffffffffffffffffffffffff1673ffffffffffffffffffffffffffffffffffffffff16815260200190815260200160002054612a1a90919063ffffffff16565b61255f565b6001905092915050565b600043905090565b803414610ef557600080fd5b50565b600a8054600181600116156101000203166002900480601f016020809104026020016040519081016040528092919081815260200182805460018160011615610100020316600290048015610f8e5780601f10610f6357610100808354040283529160200191610f8e565b820191906000526020600020905b815481529060010190602001808311610f7157829003601f168201915b505050505081565b6060600d80548060200260200160405190810160405280929190818152602001828054801561101a57602002820191906000526020600020905b8160009054906101000a900473ffffffffffffffffffffffffffffffffffffffff1673ffffffffffffffffffffffffffffffffffffffff1681526020019060010190808311610fd0575b5050505050905090565b600860003373ffffffffffffffffffffffffffffffffffffffff1673ffffffffffffffffffffffffffffffffffffffff16815260200190815260200160002060000160009054906101000a900460ff166110b3576040517f08c379a00000000000000000000000000000000000000000000000000000000081526004016110aa90613d2a565b60405180910390fd5b6001600860008373ffffffffffffffffffffffffffffffffffffffff1673ffffffffffffffffffffffffffffffffffffffff16815260200190815260200160002060000160006101000a81548160ff0219169083151502179055503373ffffffffffffffffffffffffffffffffffffffff167fbfa413337aaf515d5d4460a3631b4585cda122561a3f0b5a017a1096c46a56a6826040516111549190613b06565b60405180910390a250565b60008060008373ffffffffffffffffffffffffffffffffffffffff1673ffffffffffffffffffffffffffffffffffffffff168152602001908152602001600020549050919050565b6000600560019054906101000a900473ffffffffffffffffffffffffffffffffffffffff1673ffffffffffffffffffffffffffffffffffffffff166370a08231336040518263ffffffff167c01000000000000000000000000000000000000000000000000000000000281526004016112209190613b21565b60206040518083038186803b15801561123857600080fd5b505afa15801561124c573d6000803e3d6000fd5b505050506040513d601f19601f820116820180604052508101906112709190613379565b905090565b600c6000600d60008154811061128757fe5b9060005260206000200160009054906101000a900473ffffffffffffffffffffffffffffffffffffffff1673ffffffffffffffffffffffffffffffffffffffff1673ffffffffffffffffffffffffffffffffffffffff168152602001908152602001600020600501544311611331576040517f08c379a000000000000000000000000000000000000000000000000000000000815260040161132890613dea565b60405180910390fd5b6000600960003373ffffffffffffffffffffffffffffffffffffffff1673ffffffffffffffffffffffffffffffffffffffff16815260200190815260200160002060010160009054906101000a900473ffffffffffffffffffffffffffffffffffffffff1690506060600960003373ffffffffffffffffffffffffffffffffffffffff1673ffffffffffffffffffffffffffffffffffffffff1681526020019081526020016000206002018054600181600116156101000203166002900480601f0160208091040260200160405190810160405280929190818152602001828054600181600116156101000203166002900480156114705780601f1061144557610100808354040283529160200191611470565b820191906000526020600020905b81548152906001019060200180831161145357829003601f168201915b505050505090506060600c60008473ffffffffffffffffffffffffffffffffffffffff1673ffffffffffffffffffffffffffffffffffffffff1681526020019081526020016000206000018054600181600116156101000203166002900480601f01602080910402602001604051908101604052809291908181526020018280546001816001161561010002031660029004801561154f5780601f106115245761010080835404028352916020019161154f565b820191906000526020600020905b81548152906001019060200180831161153257829003601f168201915b505050505090508080519060200120828051906020012014156115bb5743600c60008573ffffffffffffffffffffffffffffffffffffffff1673ffffffffffffffffffffffffffffffffffffffff16815260200190815260200160002060050154106115ba57600080fd5b5b6000600960003373ffffffffffffffffffffffffffffffffffffffff1673ffffffffffffffffffffffffffffffffffffffff16815260200190815260200160002060000154905061164f3382600660009054906101000a900473ffffffffffffffffffffffffffffffffffffffff1673ffffffffffffffffffffffffffffffffffffffff16612a6f9092919063ffffffff16565b6116a481600960003373ffffffffffffffffffffffffffffffffffffffff1673ffffffffffffffffffffffffffffffffffffffff16815260200190815260200160002060000154612b1190919063ffffffff16565b600960003373ffffffffffffffffffffffffffffffffffffffff1673ffffffffffffffffffffffffffffffffffffffff168152602001908152602001600020600001819055503373ffffffffffffffffffffffffffffffffffffffff167f168f099c79d112523aea9d9a01729f5bf35d9e8697befddb6f1b46bac9ddae2d826040516117309190613e0a565b60405180910390a250505050565b606060048054600181600116156101000203166002900480601f0160208091040260200160405190810160405280929190818152602001828054600181600116156101000203166002900480156117d65780601f106117ab576101008083540402835291602001916117d6565b820191906000526020600020905b8154815290600101906020018083116117b957829003601f168201915b5050505050905090565b600560019054906101000a900473ffffffffffffffffffffffffffffffffffffffff1681565b60006118c9611813612557565b846118c48560405180606001604052806025815260200161414b602591396001600061183d612557565b73ffffffffffffffffffffffffffffffffffffffff1673ffffffffffffffffffffffffffffffffffffffff16815260200190815260200160002060008a73ffffffffffffffffffffffffffffffffffffffff1673ffffffffffffffffffffffffffffffffffffffff168152602001908152602001600020546129bf9092919063ffffffff16565b61255f565b6001905092915050565b60006118e76118e0612557565b848461272a565b6001905092915050565b600860003373ffffffffffffffffffffffffffffffffffffffff1673ffffffffffffffffffffffffffffffffffffffff16815260200190815260200160002060000160009054906101000a900460ff16611980576040517f08c379a000000000000000000000000000000000000000000000000000000000815260040161197790613d2a565b60405180910390fd5b80600560016101000a81548173ffffffffffffffffffffffffffffffffffffffff021916908373ffffffffffffffffffffffffffffffffffffffff160217905550600560019054906101000a900473ffffffffffffffffffffffffffffffffffffffff16600660006101000a81548173ffffffffffffffffffffffffffffffffffffffff021916908373ffffffffffffffffffffffffffffffffffffffff16021790555050565b600b5481565b6000600160008473ffffffffffffffffffffffffffffffffffffffff1673ffffffffffffffffffffffffffffffffffffffff16815260200190815260200160002060008373ffffffffffffffffffffffffffffffffffffffff1673ffffffffffffffffffffffffffffffffffffffff16815260200190815260200160002054905092915050565b600c60008273ffffffffffffffffffffffffffffffffffffffff1673ffffffffffffffffffffffffffffffffffffffff168152602001908152602001600020600501544310611b38576040517f08c379a0000000000000000000000000000000000000000000000000000000008152600401611b2f90613d4a565b60405180910390fd5b611b87333085600660009054906101000a900473ffffffffffffffffffffffffffffffffffffffff1673ffffffffffffffffffffffffffffffffffffffff16612b5b909392919063ffffffff16565b611bdc83600960003373ffffffffffffffffffffffffffffffffffffffff1673ffffffffffffffffffffffffffffffffffffffff16815260200190815260200160002060000154612a1a90919063ffffffff16565b600960003373ffffffffffffffffffffffffffffffffffffffff1673ffffffffffffffffffffffffffffffffffffffff1681526020019081526020016000206000018190555080600960003373ffffffffffffffffffffffffffffffffffffffff1673ffffffffffffffffffffffffffffffffffffffff16815260200190815260200160002060010160006101000a81548173ffffffffffffffffffffffffffffffffffffffff021916908373ffffffffffffffffffffffffffffffffffffffff160217905550600c60008273ffffffffffffffffffffffffffffffffffffffff1673ffffffffffffffffffffffffffffffffffffffff168152602001908152602001600020600001600960003373ffffffffffffffffffffffffffffffffffffffff1673ffffffffffffffffffffffffffffffffffffffff1681526020019081526020016000206002019080546001816001161561010002031660029004611d46929190612f3c565b50600c60008273ffffffffffffffffffffffffffffffffffffffff1673ffffffffffffffffffffffffffffffffffffffff1681526020019081526020016000206002018281548110611d9457fe5b90600052602060002001600960003373ffffffffffffffffffffffffffffffffffffffff1673ffffffffffffffffffffffffffffffffffffffff1681526020019081526020016000206003019080546001816001161561010002031660029004611dff929190612f3c565b50611e6a83600c60008473ffffffffffffffffffffffffffffffffffffffff1673ffffffffffffffffffffffffffffffffffffffff1681526020019081526020016000206004018481548110611e5157fe5b9060005260206000200154612a1a90919063ffffffff16565b600c60008373ffffffffffffffffffffffffffffffffffffffff1673ffffffffffffffffffffffffffffffffffffffff1681526020019081526020016000206004018381548110611eb757fe5b9060005260206000200181905550600b54600c60008373ffffffffffffffffffffffffffffffffffffffff1673ffffffffffffffffffffffffffffffffffffffff1681526020019081526020016000206004018381548110611f1557fe5b90600052602060002001541115611ffe57600c60008273ffffffffffffffffffffffffffffffffffffffff1673ffffffffffffffffffffffffffffffffffffffff1681526020019081526020016000206002018281548110611f7357fe5b90600052602060002001600a9080546001816001161561010002031660029004611f9e929190612f3c565b50600c60008273ffffffffffffffffffffffffffffffffffffffff1673ffffffffffffffffffffffffffffffffffffffff1681526020019081526020016000206004018281548110611fec57fe5b9060005260206000200154600b819055505b3373ffffffffffffffffffffffffffffffffffffffff167fd19bd44cefd1d78c5bdb20628547d2dda631deef4adfd63d451f9f5fc7b388ae600c60008473ffffffffffffffffffffffffffffffffffffffff1673ffffffffffffffffffffffffffffffffffffffff168152602001908152602001600020600001600960003373ffffffffffffffffffffffffffffffffffffffff1673ffffffffffffffffffffffffffffffffffffffff1681526020019081526020016000206003016040516120c8929190613c93565b60405180910390a2505050565b6060600060608060606000600c60008873ffffffffffffffffffffffffffffffffffffffff1673ffffffffffffffffffffffffffffffffffffffff168152602001908152602001600020600001600c60008973ffffffffffffffffffffffffffffffffffffffff1673ffffffffffffffffffffffffffffffffffffffff16815260200190815260200160002060010160009054906101000a900473ffffffffffffffffffffffffffffffffffffffff16600c60008a73ffffffffffffffffffffffffffffffffffffffff1673ffffffffffffffffffffffffffffffffffffffff168152602001908152602001600020600201600c60008b73ffffffffffffffffffffffffffffffffffffffff1673ffffffffffffffffffffffffffffffffffffffff168152602001908152602001600020600301600c60008c73ffffffffffffffffffffffffffffffffffffffff1673ffffffffffffffffffffffffffffffffffffffff168152602001908152602001600020600401600c60008d73ffffffffffffffffffffffffffffffffffffffff1673ffffffffffffffffffffffffffffffffffffffff16815260200190815260200160002060050154858054600181600116156101000203166002900480601f0160208091040260200160405190810160405280929190818152602001828054600181600116156101000203166002900480156123235780601f106122f857610100808354040283529160200191612323565b820191906000526020600020905b81548152906001019060200180831161230657829003601f168201915b5050505050955083805480602002602001604051908101604052809291908181526020016000905b82821015612407578382906000526020600020018054600181600116156101000203166002900480601f0160208091040260200160405190810160405280929190818152602001828054600181600116156101000203166002900480156123f35780601f106123c8576101008083540402835291602001916123f3565b820191906000526020600020905b8154815290600101906020018083116123d657829003601f168201915b50505050508152602001906001019061234b565b50505050935082805480602002602001604051908101604052809291908181526020016000905b828210156124ea578382906000526020600020018054600181600116156101000203166002900480601f0160208091040260200160405190810160405280929190818152602001828054600181600116156101000203166002900480156124d65780601f106124ab576101008083540402835291602001916124d6565b820191906000526020600020905b8154815290600101906020018083116124b957829003601f168201915b50505050508152602001906001019061242e565b5050505092508180548060200260200160405190810160405280929190818152602001828054801561253b57602002820191906000526020600020905b815481526020019060010190808311612527575b5050505050915095509550955095509550955091939550919395565b600033905090565b600073ffffffffffffffffffffffffffffffffffffffff168373ffffffffffffffffffffffffffffffffffffffff1614156125cf576040517f08c379a00000000000000000000000000000000000000000000000000000000081526004016125c690613d8a565b60405180910390fd5b600073ffffffffffffffffffffffffffffffffffffffff168273ffffffffffffffffffffffffffffffffffffffff16141561263f576040517f08c379a000000000000000000000000000000000000000000000000000000000815260040161263690613cea565b60405180910390fd5b80600160008573ffffffffffffffffffffffffffffffffffffffff1673ffffffffffffffffffffffffffffffffffffffff16815260200190815260200160002060008473ffffffffffffffffffffffffffffffffffffffff1673ffffffffffffffffffffffffffffffffffffffff168152602001908152602001600020819055508173ffffffffffffffffffffffffffffffffffffffff168373ffffffffffffffffffffffffffffffffffffffff167f8c5be1e5ebec7d5bd14f71427d1e84f3dd0314c0f7b2291e5b200ac8c7c3b9258360405161271d9190613e0a565b60405180910390a3505050565b600073ffffffffffffffffffffffffffffffffffffffff168373ffffffffffffffffffffffffffffffffffffffff16141561279a576040517f08c379a000000000000000000000000000000000000000000000000000000000815260040161279190613d6a565b60405180910390fd5b600073ffffffffffffffffffffffffffffffffffffffff168273ffffffffffffffffffffffffffffffffffffffff16141561280a576040517f08c379a000000000000000000000000000000000000000000000000000000000815260040161280190613cca565b60405180910390fd5b612815838383612c00565b612880816040518060600160405280602681526020016140fd602691396000808773ffffffffffffffffffffffffffffffffffffffff1673ffffffffffffffffffffffffffffffffffffffff168152602001908152602001600020546129bf9092919063ffffffff16565b6000808573ffffffffffffffffffffffffffffffffffffffff1673ffffffffffffffffffffffffffffffffffffffff16815260200190815260200160002081905550612913816000808573ffffffffffffffffffffffffffffffffffffffff1673ffffffffffffffffffffffffffffffffffffffff16815260200190815260200160002054612a1a90919063ffffffff16565b6000808473ffffffffffffffffffffffffffffffffffffffff1673ffffffffffffffffffffffffffffffffffffffff168152602001908152602001600020819055508173ffffffffffffffffffffffffffffffffffffffff168373ffffffffffffffffffffffffffffffffffffffff167fddf252ad1be2c89b69c2b068fc378daa952ba7f163c4a11628f55a4df523b3ef836040516129b29190613e0a565b60405180910390a3505050565b6000838311158290612a07576040517f08c379a00000000000000000000000000000000000000000000000000000000081526004016129fe9190613bf4565b60405180910390fd5b5060008385039050809150509392505050565b600080828401905083811015612a65576040517f08c379a0000000000000000000000000000000000000000000000000000000008152600401612a5c90613d0a565b60405180910390fd5b8091505092915050565b612b0c8363a9059cbb7c0100000000000000000000000000000000000000000000000000000000028484604051602401612aaa929190613b73565b604051602081830303815290604052907bffffffffffffffffffffffffffffffffffffffffffffffffffffffff19166020820180517bffffffffffffffffffffffffffffffffffffffffffffffffffffffff8381831617835250505050612c05565b505050565b6000612b5383836040518060400160405280601e81526020017f536166654d6174683a207375627472616374696f6e206f766572666c6f7700008152506129bf565b905092915050565b612bfa846323b872dd7c010000000000000000000000000000000000000000000000000000000002858585604051602401612b9893929190613b3c565b604051602081830303815290604052907bffffffffffffffffffffffffffffffffffffffffffffffffffffffff19166020820180517bffffffffffffffffffffffffffffffffffffffffffffffffffffffff8381831617835250505050612c05565b50505050565b505050565b6060612c67826040518060400160405280602081526020017f5361666545524332303a206c6f772d6c6576656c2063616c6c206661696c65648152508573ffffffffffffffffffffffffffffffffffffffff16612ccc9092919063ffffffff16565b9050600081511115612cc75780806020019051810190612c879190613268565b612cc6576040517f08c379a0000000000000000000000000000000000000000000000000000000008152600401612cbd90613dca565b60405180910390fd5b5b505050565b6060612cdb8484600085612ce4565b90509392505050565b6060612cef85612e07565b612d2e576040517f08c379a0000000000000000000000000000000000000000000000000000000008152600401612d2590613daa565b60405180910390fd5b600060608673ffffffffffffffffffffffffffffffffffffffff168587604051612d589190613ada565b60006040518083038185875af1925050503d8060008114612d95576040519150601f19603f3d011682016040523d82523d6000602084013e612d9a565b606091505b50915091508115612daf578092505050612dff565b600081511115612dc25780518082602001fd5b836040517f08c379a0000000000000000000000000000000000000000000000000000000008152600401612df69190613bf4565b60405180910390fd5b949350505050565b600080823b905060008111915050919050565b828054600181600116156101000203166002900490600052602060002090601f016020900481019282601f10612e5b57805160ff1916838001178555612e89565b82800160010185558215612e89579182015b82811115612e88578251825591602001919060010190612e6d565b5b509050612e969190612fc3565b5090565b828054828255906000526020600020908101928215612ee9579160200282015b82811115612ee8578251829080519060200190612ed8929190612e1a565b5091602001919060010190612eba565b5b509050612ef69190612fe8565b5090565b5080546000825590600052602060002090810190612f189190612fc3565b50565b5080546000825590600052602060002090810190612f399190612fc3565b50565b828054600181600116156101000203166002900490600052602060002090601f016020900481019282601f10612f755780548555612fb2565b82800160010185558215612fb257600052602060002091601f016020900482015b82811115612fb1578254825591600101919060010190612f96565b5b509050612fbf9190612fc3565b5090565b612fe591905b80821115612fe1576000816000905550600101612fc9565b5090565b90565b61301191905b8082111561300d57600081816130049190613014565b50600101612fee565b5090565b90565b50805460018160011615610100020316600290046000825580601f1061303a5750613059565b601f0160209004906000526020600020908101906130589190612fc3565b5b50565b60008135905061306b816140b7565b92915050565b600082601f83011261308257600080fd5b813561309561309082613e6d565b613e40565b9150818183526020840193506020810190508360005b838110156130db57813586016130c188826130fa565b8452602084019350602083019250506001810190506130ab565b5050505092915050565b6000815190506130f4816140ce565b92915050565b600082601f83011261310b57600080fd5b813561311e61311982613e95565b613e40565b9150808252602083016020830185838301111561313a57600080fd5b613145838284614064565b50505092915050565b60008135905061315d816140e5565b92915050565b600081519050613172816140e5565b92915050565b60006020828403121561318a57600080fd5b60006131988482850161305c565b91505092915050565b600080604083850312156131b457600080fd5b60006131c28582860161305c565b92505060206131d38582860161305c565b9150509250929050565b6000806000606084860312156131f257600080fd5b60006132008682870161305c565b93505060206132118682870161305c565b92505060406132228682870161314e565b9150509250925092565b6000806040838503121561323f57600080fd5b600061324d8582860161305c565b925050602061325e8582860161314e565b9150509250929050565b60006020828403121561327a57600080fd5b6000613288848285016130e5565b91505092915050565b600080600080600060a086880312156132a957600080fd5b600086013567ffffffffffffffff8111156132c357600080fd5b6132cf888289016130fa565b95505060206132e08882890161305c565b945050604086013567ffffffffffffffff8111156132fd57600080fd5b61330988828901613071565b935050606086013567ffffffffffffffff81111561332657600080fd5b61333288828901613071565b92505060806133438882890161314e565b9150509295509295909350565b60006020828403121561336257600080fd5b60006133708482850161314e565b91505092915050565b60006020828403121561338b57600080fd5b600061339984828501613163565b91505092915050565b6000806000606084860312156133b757600080fd5b60006133c58682870161314e565b93505060206133d68682870161314e565b92505060406133e78682870161305c565b9150509250925092565b60006133fd8383613444565b60208301905092915050565b600061341583836135e2565b905092915050565b60006134298383613aad565b60208301905092915050565b61343e8161402e565b82525050565b61344d81613fcf565b82525050565b61345c81613fcf565b82525050565b600061346d82613f06565b6134778185613f64565b935061348283613ec1565b8060005b838110156134b357815161349a88826133f1565b97506134a583613f3d565b925050600181019050613486565b5085935050505092915050565b60006134cb82613f11565b6134d58185613f75565b9350836020820285016134e785613ed1565b8060005b8581101561352357848403895281516135048582613409565b945061350f83613f4a565b925060208a019950506001810190506134eb565b50829750879550505050505092915050565b600061354082613f1c565b61354a8185613f86565b935061355583613ee1565b8060005b8381101561358657815161356d888261341d565b975061357883613f57565b925050600181019050613559565b5085935050505092915050565b61359c81613fe1565b82525050565b6135ab81613fed565b82525050565b60006135bc82613f27565b6135c68185613f97565b93506135d6818560208601614073565b80840191505092915050565b60006135ed82613f32565b6135f78185613fa2565b9350613607818560208601614073565b613610816140a6565b840191505092915050565b600061362682613f32565b6136308185613fb3565b9350613640818560208601614073565b613649816140a6565b840191505092915050565b6000815460018116600081146136715760018114613697576136db565b607f60028304166136828187613fb3565b955060ff1983168652602086019350506136db565b600282046136a58187613fb3565b95506136b085613ef1565b60005b828110156136d2578154818901526001820191506020810190506136b3565b80880195505050505b505092915050565b60006136f0602383613fb3565b91507f45524332303a207472616e7366657220746f20746865207a65726f206164647260008301527f65737300000000000000000000000000000000000000000000000000000000006020830152604082019050919050565b6000613756602283613fb3565b91507f45524332303a20617070726f766520746f20746865207a65726f20616464726560008301527f73730000000000000000000000000000000000000000000000000000000000006020830152604082019050919050565b60006137bc601b83613fb3565b91507f536166654d6174683a206164646974696f6e206f766572666c6f7700000000006000830152602082019050919050565b60006137fc601b83613fb3565b91507f596f7520646f206e6f742068617665207065726d697373696f6e2e00000000006000830152602082019050919050565b600061383c601783613fb3565b91507f566f74696e6720697320616c7265616479206f766572210000000000000000006000830152602082019050919050565b600061387c604383613fc4565b91507f454950373132446f6d61696e28737472696e67206e616d652c75696e7432353660008301527f20636861696e49642c6164647265737320766572696679696e67436f6e74726160208301527f63742900000000000000000000000000000000000000000000000000000000006040830152604382019050919050565b6000613908602583613fb3565b91507f45524332303a207472616e736665722066726f6d20746865207a65726f20616460008301527f64726573730000000000000000000000000000000000000000000000000000006020830152604082019050919050565b600061396e602483613fb3565b91507f45524332303a20617070726f76652066726f6d20746865207a65726f2061646460008301527f72657373000000000000000000000000000000000000000000000000000000006020830152604082019050919050565b60006139d4601d83613fb3565b91507f416464726573733a2063616c6c20746f206e6f6e2d636f6e74726163740000006000830152602082019050919050565b6000613a14602a83613fb3565b91507f5361666545524332303a204552433230206f7065726174696f6e20646964206e60008301527f6f742073756363656564000000000000000000000000000000000000000000006020830152604082019050919050565b6000613a7a601983613fb3565b91507f566f74696e6720686173206e6f7420656e6465642079657421000000000000006000830152602082019050919050565b613ab681614017565b82525050565b613ac581614017565b82525050565b613ad481614021565b82525050565b6000613ae682846135b1565b915081905092915050565b6000613afc8261386f565b9150819050919050565b6000602082019050613b1b6000830184613453565b92915050565b6000602082019050613b366000830184613435565b92915050565b6000606082019050613b516000830186613453565b613b5e6020830185613453565b613b6b6040830184613abc565b949350505050565b6000604082019050613b886000830185613453565b613b956020830184613abc565b9392505050565b60006020820190508181036000830152613bb68184613462565b905092915050565b6000602082019050613bd36000830184613593565b92915050565b6000602082019050613bee60008301846135a2565b92915050565b60006020820190508181036000830152613c0e818461361b565b905092915050565b600060c0820190508181036000830152613c30818961361b565b9050613c3f6020830188613453565b8181036040830152613c5181876134c0565b90508181036060830152613c6581866134c0565b90508181036080830152613c798185613535565b9050613c8860a0830184613abc565b979650505050505050565b60006040820190508181036000830152613cad8185613654565b90508181036020830152613cc18184613654565b90509392505050565b60006020820190508181036000830152613ce3816136e3565b9050919050565b60006020820190508181036000830152613d0381613749565b9050919050565b60006020820190508181036000830152613d23816137af565b9050919050565b60006020820190508181036000830152613d43816137ef565b9050919050565b60006020820190508181036000830152613d638161382f565b9050919050565b60006020820190508181036000830152613d83816138fb565b9050919050565b60006020820190508181036000830152613da381613961565b9050919050565b60006020820190508181036000830152613dc3816139c7565b9050919050565b60006020820190508181036000830152613de381613a07565b9050919050565b60006020820190508181036000830152613e0381613a6d565b9050919050565b6000602082019050613e1f6000830184613abc565b92915050565b6000602082019050613e3a6000830184613acb565b92915050565b6000604051905081810181811067ffffffffffffffff82111715613e6357600080fd5b8060405250919050565b600067ffffffffffffffff821115613e8457600080fd5b602082029050602081019050919050565b600067ffffffffffffffff821115613eac57600080fd5b601f19601f8301169050602081019050919050565b6000819050602082019050919050565b6000819050602082019050919050565b6000819050602082019050919050565b60008190508160005260206000209050919050565b600081519050919050565b600081519050919050565b600081519050919050565b600081519050919050565b600081519050919050565b6000602082019050919050565b6000602082019050919050565b6000602082019050919050565b600082825260208201905092915050565b600082825260208201905092915050565b600082825260208201905092915050565b600081905092915050565b600082825260208201905092915050565b600082825260208201905092915050565b600081905092915050565b6000613fda82613ff7565b9050919050565b60008115159050919050565b6000819050919050565b600073ffffffffffffffffffffffffffffffffffffffff82169050919050565b6000819050919050565b600060ff82169050919050565b600061403982614040565b9050919050565b600061404b82614052565b9050919050565b600061405d82613ff7565b9050919050565b82818337600083830152505050565b60005b83811015614091578082015181840152602081019050614076565b838111156140a0576000848401525b50505050565b6000601f19601f8301169050919050565b6140c081613fcf565b81146140cb57600080fd5b50565b6140d781613fe1565b81146140e257600080fd5b50565b6140ee81614017565b81146140f957600080fd5b5056fe45524332303a207472616e7366657220616d6f756e7420657863656564732062616c616e636545524332303a207472616e7366657220616d6f756e74206578636565647320616c6c6f77616e636545524332303a2064656372656173656420616c6c6f77616e63652062656c6f77207a65726fa2646970667358221220f9194ea26448c3f4e3b0b07f7bc00879d6602988249f935a6509f50af020088f64736f6c63430006060033",
  "immutableReferences": {},
  "source": "// File: ..\\..\\..\\node_modules\\@openzeppelin\\contracts\\GSN\\Context.sol\n\n// SPDX-License-Identifier: MIT\n\npragma solidity ^0.6.0;\n\n/*\n * @dev Provides information about the current execution context, including the\n * sender of the transaction and its data. While these are generally available\n * via msg.sender and msg.data, they should not be accessed in such a direct\n * manner, since when dealing with GSN meta-transactions the account sending and\n * paying for execution may not be the actual sender (as far as an application\n * is concerned).\n *\n * This contract is only required for intermediate, library-like contracts.\n */\nabstract contract Context {\n  function _msgSender() internal virtual view returns (address payable) {\n    return msg.sender;\n  }\n\n  function _msgData() internal virtual view returns (bytes memory) {\n    this; // silence state mutability warning without generating bytecode - see https://github.com/ethereum/solidity/issues/2691\n    return msg.data;\n  }\n}\n\n// File: ..\\..\\..\\node_modules\\@openzeppelin\\contracts\\token\\ERC20\\IERC20.sol\n\npragma solidity ^0.6.0;\n\n/**\n * @dev Interface of the ERC20 standard as defined in the EIP.\n */\ninterface IERC20 {\n  /**\n   * @dev Returns the amount of tokens in existence.\n   */\n  function totalSupply() external view returns (uint256);\n\n  /**\n   * @dev Returns the amount of tokens owned by `account`.\n   */\n  function balanceOf(address account) external view returns (uint256);\n\n  /**\n   * @dev Moves `amount` tokens from the caller's account to `recipient`.\n   *\n   * Returns a boolean value indicating whether the operation succeeded.\n   *\n   * Emits a {Transfer} event.\n   */\n  function transfer(address recipient, uint256 amount) external returns (bool);\n\n  /**\n   * @dev Returns the remaining number of tokens that `spender` will be\n   * allowed to spend on behalf of `owner` through {transferFrom}. This is\n   * zero by default.\n   *\n   * This value changes when {approve} or {transferFrom} are called.\n   */\n  function allowance(address owner, address spender)\n    external\n    view\n    returns (uint256);\n\n  /**\n   * @dev Sets `amount` as the allowance of `spender` over the caller's tokens.\n   *\n   * Returns a boolean value indicating whether the operation succeeded.\n   *\n   * IMPORTANT: Beware that changing an allowance with this method brings the risk\n   * that someone may use both the old and the new allowance by unfortunate\n   * transaction ordering. One possible solution to mitigate this race\n   * condition is to first reduce the spender's allowance to 0 and set the\n   * desired value afterwards:\n   * https://github.com/ethereum/EIPs/issues/20#issuecomment-263524729\n   *\n   * Emits an {Approval} event.\n   */\n  function approve(address spender, uint256 amount) external returns (bool);\n\n  /**\n   * @dev Moves `amount` tokens from `sender` to `recipient` using the\n   * allowance mechanism. `amount` is then deducted from the caller's\n   * allowance.\n   *\n   * Returns a boolean value indicating whether the operation succeeded.\n   *\n   * Emits a {Transfer} event.\n   */\n  function transferFrom(\n    address sender,\n    address recipient,\n    uint256 amount\n  ) external returns (bool);\n\n  /**\n   * @dev Emitted when `value` tokens are moved from one account (`from`) to\n   * another (`to`).\n   *\n   * Note that `value` may be zero.\n   */\n  event Transfer(address indexed from, address indexed to, uint256 value);\n\n  /**\n   * @dev Emitted when the allowance of a `spender` for an `owner` is set by\n   * a call to {approve}. `value` is the new allowance.\n   */\n  event Approval(address indexed owner, address indexed spender, uint256 value);\n}\n\n// File: ..\\..\\..\\node_modules\\@openzeppelin\\contracts\\math\\SafeMath.sol\n\npragma solidity ^0.6.0;\n\n/**\n * @dev Wrappers over Solidity's arithmetic operations with added overflow\n * checks.\n *\n * Arithmetic operations in Solidity wrap on overflow. This can easily result\n * in bugs, because programmers usually assume that an overflow raises an\n * error, which is the standard behavior in high level programming languages.\n * `SafeMath` restores this intuition by reverting the transaction when an\n * operation overflows.\n *\n * Using this library instead of the unchecked operations eliminates an entire\n * class of bugs, so it's recommended to use it always.\n */\nlibrary SafeMath {\n  /**\n   * @dev Returns the addition of two unsigned integers, reverting on\n   * overflow.\n   *\n   * Counterpart to Solidity's `+` operator.\n   *\n   * Requirements:\n   *\n   * - Addition cannot overflow.\n   */\n  function add(uint256 a, uint256 b) internal pure returns (uint256) {\n    uint256 c = a + b;\n    require(c >= a, 'SafeMath: addition overflow');\n\n    return c;\n  }\n\n  /**\n   * @dev Returns the subtraction of two unsigned integers, reverting on\n   * overflow (when the result is negative).\n   *\n   * Counterpart to Solidity's `-` operator.\n   *\n   * Requirements:\n   *\n   * - Subtraction cannot overflow.\n   */\n  function sub(uint256 a, uint256 b) internal pure returns (uint256) {\n    return sub(a, b, 'SafeMath: subtraction overflow');\n  }\n\n  /**\n   * @dev Returns the subtraction of two unsigned integers, reverting with custom message on\n   * overflow (when the result is negative).\n   *\n   * Counterpart to Solidity's `-` operator.\n   *\n   * Requirements:\n   *\n   * - Subtraction cannot overflow.\n   */\n  function sub(\n    uint256 a,\n    uint256 b,\n    string memory errorMessage\n  ) internal pure returns (uint256) {\n    require(b <= a, errorMessage);\n    uint256 c = a - b;\n\n    return c;\n  }\n\n  /**\n   * @dev Returns the multiplication of two unsigned integers, reverting on\n   * overflow.\n   *\n   * Counterpart to Solidity's `*` operator.\n   *\n   * Requirements:\n   *\n   * - Multiplication cannot overflow.\n   */\n  function mul(uint256 a, uint256 b) internal pure returns (uint256) {\n    // Gas optimization: this is cheaper than requiring 'a' not being zero, but the\n    // benefit is lost if 'b' is also tested.\n    // See: https://github.com/OpenZeppelin/openzeppelin-contracts/pull/522\n    if (a == 0) {\n      return 0;\n    }\n\n    uint256 c = a * b;\n    require(c / a == b, 'SafeMath: multiplication overflow');\n\n    return c;\n  }\n\n  /**\n   * @dev Returns the integer division of two unsigned integers. Reverts on\n   * division by zero. The result is rounded towards zero.\n   *\n   * Counterpart to Solidity's `/` operator. Note: this function uses a\n   * `revert` opcode (which leaves remaining gas untouched) while Solidity\n   * uses an invalid opcode to revert (consuming all remaining gas).\n   *\n   * Requirements:\n   *\n   * - The divisor cannot be zero.\n   */\n  function div(uint256 a, uint256 b) internal pure returns (uint256) {\n    return div(a, b, 'SafeMath: division by zero');\n  }\n\n  /**\n   * @dev Returns the integer division of two unsigned integers. Reverts with custom message on\n   * division by zero. The result is rounded towards zero.\n   *\n   * Counterpart to Solidity's `/` operator. Note: this function uses a\n   * `revert` opcode (which leaves remaining gas untouched) while Solidity\n   * uses an invalid opcode to revert (consuming all remaining gas).\n   *\n   * Requirements:\n   *\n   * - The divisor cannot be zero.\n   */\n  function div(\n    uint256 a,\n    uint256 b,\n    string memory errorMessage\n  ) internal pure returns (uint256) {\n    require(b > 0, errorMessage);\n    uint256 c = a / b;\n    // assert(a == b * c + a % b); // There is no case in which this doesn't hold\n\n    return c;\n  }\n\n  /**\n   * @dev Returns the remainder of dividing two unsigned integers. (unsigned integer modulo),\n   * Reverts when dividing by zero.\n   *\n   * Counterpart to Solidity's `%` operator. This function uses a `revert`\n   * opcode (which leaves remaining gas untouched) while Solidity uses an\n   * invalid opcode to revert (consuming all remaining gas).\n   *\n   * Requirements:\n   *\n   * - The divisor cannot be zero.\n   */\n  function mod(uint256 a, uint256 b) internal pure returns (uint256) {\n    return mod(a, b, 'SafeMath: modulo by zero');\n  }\n\n  /**\n   * @dev Returns the remainder of dividing two unsigned integers. (unsigned integer modulo),\n   * Reverts with custom message when dividing by zero.\n   *\n   * Counterpart to Solidity's `%` operator. This function uses a `revert`\n   * opcode (which leaves remaining gas untouched) while Solidity uses an\n   * invalid opcode to revert (consuming all remaining gas).\n   *\n   * Requirements:\n   *\n   * - The divisor cannot be zero.\n   */\n  function mod(\n    uint256 a,\n    uint256 b,\n    string memory errorMessage\n  ) internal pure returns (uint256) {\n    require(b != 0, errorMessage);\n    return a % b;\n  }\n}\n\n// File: ..\\..\\..\\node_modules\\@openzeppelin\\contracts\\utils\\Address.sol\n\npragma solidity ^0.6.2;\n\n/**\n * @dev Collection of functions related to the address type\n */\nlibrary Address {\n  /**\n   * @dev Returns true if `account` is a contract.\n   *\n   * [IMPORTANT]\n   * ====\n   * It is unsafe to assume that an address for which this function returns\n   * false is an externally-owned account (EOA) and not a contract.\n   *\n   * Among others, `isContract` will return false for the following\n   * types of addresses:\n   *\n   *  - an externally-owned account\n   *  - a contract in construction\n   *  - an address where a contract will be created\n   *  - an address where a contract lived, but was destroyed\n   * ====\n   */\n  function isContract(address account) internal view returns (bool) {\n    // This method relies in extcodesize, which returns 0 for contracts in\n    // construction, since the code is only stored at the end of the\n    // constructor execution.\n\n    uint256 size;\n    // solhint-disable-next-line no-inline-assembly\n    assembly {\n      size := extcodesize(account)\n    }\n    return size > 0;\n  }\n\n  /**\n   * @dev Replacement for Solidity's `transfer`: sends `amount` wei to\n   * `recipient`, forwarding all available gas and reverting on errors.\n   *\n   * https://eips.ethereum.org/EIPS/eip-1884[EIP1884] increases the gas cost\n   * of certain opcodes, possibly making contracts go over the 2300 gas limit\n   * imposed by `transfer`, making them unable to receive funds via\n   * `transfer`. {sendValue} removes this limitation.\n   *\n   * https://diligence.consensys.net/posts/2019/09/stop-using-soliditys-transfer-now/[Learn more].\n   *\n   * IMPORTANT: because control is transferred to `recipient`, care must be\n   * taken to not create reentrancy vulnerabilities. Consider using\n   * {ReentrancyGuard} or the\n   * https://solidity.readthedocs.io/en/v0.5.11/security-considerations.html#use-the-checks-effects-interactions-pattern[checks-effects-interactions pattern].\n   */\n  function sendValue(address payable recipient, uint256 amount) internal {\n    require(address(this).balance >= amount, 'Address: insufficient balance');\n\n    // solhint-disable-next-line avoid-low-level-calls, avoid-call-value\n    (bool success, ) = recipient.call{ value: amount }('');\n    require(\n      success,\n      'Address: unable to send value, recipient may have reverted'\n    );\n  }\n\n  /**\n   * @dev Performs a Solidity function call using a low level `call`. A\n   * plain`call` is an unsafe replacement for a function call: use this\n   * function instead.\n   *\n   * If `target` reverts with a revert reason, it is bubbled up by this\n   * function (like regular Solidity function calls).\n   *\n   * Returns the raw returned data. To convert to the expected return value,\n   * use https://solidity.readthedocs.io/en/latest/units-and-global-variables.html?highlight=abi.decode#abi-encoding-and-decoding-functions[`abi.decode`].\n   *\n   * Requirements:\n   *\n   * - `target` must be a contract.\n   * - calling `target` with `data` must not revert.\n   *\n   * _Available since v3.1._\n   */\n  function functionCall(address target, bytes memory data)\n    internal\n    returns (bytes memory)\n  {\n    return functionCall(target, data, 'Address: low-level call failed');\n  }\n\n  /**\n   * @dev Same as {xref-Address-functionCall-address-bytes-}[`functionCall`], but with\n   * `errorMessage` as a fallback revert reason when `target` reverts.\n   *\n   * _Available since v3.1._\n   */\n  function functionCall(\n    address target,\n    bytes memory data,\n    string memory errorMessage\n  ) internal returns (bytes memory) {\n    return _functionCallWithValue(target, data, 0, errorMessage);\n  }\n\n  /**\n   * @dev Same as {xref-Address-functionCall-address-bytes-}[`functionCall`],\n   * but also transferring `value` wei to `target`.\n   *\n   * Requirements:\n   *\n   * - the calling contract must have an ETH balance of at least `value`.\n   * - the called Solidity function must be `payable`.\n   *\n   * _Available since v3.1._\n   */\n  function functionCallWithValue(\n    address target,\n    bytes memory data,\n    uint256 value\n  ) internal returns (bytes memory) {\n    return\n      functionCallWithValue(\n        target,\n        data,\n        value,\n        'Address: low-level call with value failed'\n      );\n  }\n\n  /**\n   * @dev Same as {xref-Address-functionCallWithValue-address-bytes-uint256-}[`functionCallWithValue`], but\n   * with `errorMessage` as a fallback revert reason when `target` reverts.\n   *\n   * _Available since v3.1._\n   */\n  function functionCallWithValue(\n    address target,\n    bytes memory data,\n    uint256 value,\n    string memory errorMessage\n  ) internal returns (bytes memory) {\n    require(\n      address(this).balance >= value,\n      'Address: insufficient balance for call'\n    );\n    return _functionCallWithValue(target, data, value, errorMessage);\n  }\n\n  function _functionCallWithValue(\n    address target,\n    bytes memory data,\n    uint256 weiValue,\n    string memory errorMessage\n  ) private returns (bytes memory) {\n    require(isContract(target), 'Address: call to non-contract');\n\n    // solhint-disable-next-line avoid-low-level-calls\n    (bool success, bytes memory returndata) = target.call{ value: weiValue }(\n      data\n    );\n    if (success) {\n      return returndata;\n    } else {\n      // Look for revert reason and bubble it up if present\n      if (returndata.length > 0) {\n        // The easiest way to bubble the revert reason is using memory via assembly\n\n        // solhint-disable-next-line no-inline-assembly\n        assembly {\n          let returndata_size := mload(returndata)\n          revert(add(32, returndata), returndata_size)\n        }\n      } else {\n        revert(errorMessage);\n      }\n    }\n  }\n}\n\n// File: @openzeppelin\\contracts\\token\\ERC20\\ERC20.sol\n\npragma solidity ^0.6.0;\n\n/**\n * @dev Implementation of the {IERC20} interface.\n *\n * This implementation is agnostic to the way tokens are created. This means\n * that a supply mechanism has to be added in a derived contract using {_mint}.\n * For a generic mechanism see {ERC20PresetMinterPauser}.\n *\n * TIP: For a detailed writeup see our guide\n * https://forum.zeppelin.solutions/t/how-to-implement-erc20-supply-mechanisms/226[How\n * to implement supply mechanisms].\n *\n * We have followed general OpenZeppelin guidelines: functions revert instead\n * of returning `false` on failure. This behavior is nonetheless conventional\n * and does not conflict with the expectations of ERC20 applications.\n *\n * Additionally, an {Approval} event is emitted on calls to {transferFrom}.\n * This allows applications to reconstruct the allowance for all accounts just\n * by listening to said events. Other implementations of the EIP may not emit\n * these events, as it isn't required by the specification.\n *\n * Finally, the non-standard {decreaseAllowance} and {increaseAllowance}\n * functions have been added to mitigate the well-known issues around setting\n * allowances. See {IERC20-approve}.\n */\ncontract ERC20 is Context, IERC20 {\n  using SafeMath for uint256;\n  using Address for address;\n\n  mapping(address => uint256) private _balances;\n\n  mapping(address => mapping(address => uint256)) private _allowances;\n\n  uint256 private _totalSupply;\n\n  string private _name;\n  string private _symbol;\n  uint8 private _decimals;\n\n  /**\n   * @dev Sets the values for {name} and {symbol}, initializes {decimals} with\n   * a default value of 18.\n   *\n   * To select a different value for {decimals}, use {_setupDecimals}.\n   *\n   * All three of these values are immutable: they can only be set once during\n   * construction.\n   */\n  constructor(string memory name, string memory symbol) public {\n    _name = name;\n    _symbol = symbol;\n    _decimals = 18;\n  }\n\n  /**\n   * @dev Returns the name of the token.\n   */\n  function name() public view returns (string memory) {\n    return _name;\n  }\n\n  /**\n   * @dev Returns the symbol of the token, usually a shorter version of the\n   * name.\n   */\n  function symbol() public view returns (string memory) {\n    return _symbol;\n  }\n\n  /**\n   * @dev Returns the number of decimals used to get its user representation.\n   * For example, if `decimals` equals `2`, a balance of `505` tokens should\n   * be displayed to a user as `5,05` (`505 / 10 ** 2`).\n   *\n   * Tokens usually opt for a value of 18, imitating the relationship between\n   * Ether and Wei. This is the value {ERC20} uses, unless {_setupDecimals} is\n   * called.\n   *\n   * NOTE: This information is only used for _display_ purposes: it in\n   * no way affects any of the arithmetic of the contract, including\n   * {IERC20-balanceOf} and {IERC20-transfer}.\n   */\n  function decimals() public view returns (uint8) {\n    return _decimals;\n  }\n\n  /**\n   * @dev See {IERC20-totalSupply}.\n   */\n  function totalSupply() public override view returns (uint256) {\n    return _totalSupply;\n  }\n\n  /**\n   * @dev See {IERC20-balanceOf}.\n   */\n  function balanceOf(address account) public override view returns (uint256) {\n    return _balances[account];\n  }\n\n  /**\n   * @dev See {IERC20-transfer}.\n   *\n   * Requirements:\n   *\n   * - `recipient` cannot be the zero address.\n   * - the caller must have a balance of at least `amount`.\n   */\n  function transfer(address recipient, uint256 amount)\n    public\n    virtual\n    override\n    returns (bool)\n  {\n    _transfer(_msgSender(), recipient, amount);\n    return true;\n  }\n\n  /**\n   * @dev See {IERC20-allowance}.\n   */\n  function allowance(address owner, address spender)\n    public\n    virtual\n    override\n    view\n    returns (uint256)\n  {\n    return _allowances[owner][spender];\n  }\n\n  /**\n   * @dev See {IERC20-approve}.\n   *\n   * Requirements:\n   *\n   * - `spender` cannot be the zero address.\n   */\n  function approve(address spender, uint256 amount)\n    public\n    virtual\n    override\n    returns (bool)\n  {\n    _approve(_msgSender(), spender, amount);\n    return true;\n  }\n\n  /**\n   * @dev See {IERC20-transferFrom}.\n   *\n   * Emits an {Approval} event indicating the updated allowance. This is not\n   * required by the EIP. See the note at the beginning of {ERC20};\n   *\n   * Requirements:\n   * - `sender` and `recipient` cannot be the zero address.\n   * - `sender` must have a balance of at least `amount`.\n   * - the caller must have allowance for ``sender``'s tokens of at least\n   * `amount`.\n   */\n  function transferFrom(\n    address sender,\n    address recipient,\n    uint256 amount\n  ) public virtual override returns (bool) {\n    _transfer(sender, recipient, amount);\n    _approve(\n      sender,\n      _msgSender(),\n      _allowances[sender][_msgSender()].sub(\n        amount,\n        'ERC20: transfer amount exceeds allowance'\n      )\n    );\n    return true;\n  }\n\n  /**\n   * @dev Atomically increases the allowance granted to `spender` by the caller.\n   *\n   * This is an alternative to {approve} that can be used as a mitigation for\n   * problems described in {IERC20-approve}.\n   *\n   * Emits an {Approval} event indicating the updated allowance.\n   *\n   * Requirements:\n   *\n   * - `spender` cannot be the zero address.\n   */\n  function increaseAllowance(address spender, uint256 addedValue)\n    public\n    virtual\n    returns (bool)\n  {\n    _approve(\n      _msgSender(),\n      spender,\n      _allowances[_msgSender()][spender].add(addedValue)\n    );\n    return true;\n  }\n\n  /**\n   * @dev Atomically decreases the allowance granted to `spender` by the caller.\n   *\n   * This is an alternative to {approve} that can be used as a mitigation for\n   * problems described in {IERC20-approve}.\n   *\n   * Emits an {Approval} event indicating the updated allowance.\n   *\n   * Requirements:\n   *\n   * - `spender` cannot be the zero address.\n   * - `spender` must have allowance for the caller of at least\n   * `subtractedValue`.\n   */\n  function decreaseAllowance(address spender, uint256 subtractedValue)\n    public\n    virtual\n    returns (bool)\n  {\n    _approve(\n      _msgSender(),\n      spender,\n      _allowances[_msgSender()][spender].sub(\n        subtractedValue,\n        'ERC20: decreased allowance below zero'\n      )\n    );\n    return true;\n  }\n\n  /**\n   * @dev Moves tokens `amount` from `sender` to `recipient`.\n   *\n   * This is internal function is equivalent to {transfer}, and can be used to\n   * e.g. implement automatic token fees, slashing mechanisms, etc.\n   *\n   * Emits a {Transfer} event.\n   *\n   * Requirements:\n   *\n   * - `sender` cannot be the zero address.\n   * - `recipient` cannot be the zero address.\n   * - `sender` must have a balance of at least `amount`.\n   */\n  function _transfer(\n    address sender,\n    address recipient,\n    uint256 amount\n  ) internal virtual {\n    require(sender != address(0), 'ERC20: transfer from the zero address');\n    require(recipient != address(0), 'ERC20: transfer to the zero address');\n\n    _beforeTokenTransfer(sender, recipient, amount);\n\n    _balances[sender] = _balances[sender].sub(\n      amount,\n      'ERC20: transfer amount exceeds balance'\n    );\n    _balances[recipient] = _balances[recipient].add(amount);\n    emit Transfer(sender, recipient, amount);\n  }\n\n  /** @dev Creates `amount` tokens and assigns them to `account`, increasing\n   * the total supply.\n   *\n   * Emits a {Transfer} event with `from` set to the zero address.\n   *\n   * Requirements\n   *\n   * - `to` cannot be the zero address.\n   */\n  function _mint(address account, uint256 amount) internal virtual {\n    require(account != address(0), 'ERC20: mint to the zero address');\n\n    _beforeTokenTransfer(address(0), account, amount);\n\n    _totalSupply = _totalSupply.add(amount);\n    _balances[account] = _balances[account].add(amount);\n    emit Transfer(address(0), account, amount);\n  }\n\n  /**\n   * @dev Destroys `amount` tokens from `account`, reducing the\n   * total supply.\n   *\n   * Emits a {Transfer} event with `to` set to the zero address.\n   *\n   * Requirements\n   *\n   * - `account` cannot be the zero address.\n   * - `account` must have at least `amount` tokens.\n   */\n  function _burn(address account, uint256 amount) internal virtual {\n    require(account != address(0), 'ERC20: burn from the zero address');\n\n    _beforeTokenTransfer(account, address(0), amount);\n\n    _balances[account] = _balances[account].sub(\n      amount,\n      'ERC20: burn amount exceeds balance'\n    );\n    _totalSupply = _totalSupply.sub(amount);\n    emit Transfer(account, address(0), amount);\n  }\n\n  /**\n   * @dev Sets `amount` as the allowance of `spender` over the `owner` s tokens.\n   *\n   * This internal function is equivalent to `approve`, and can be used to\n   * e.g. set automatic allowances for certain subsystems, etc.\n   *\n   * Emits an {Approval} event.\n   *\n   * Requirements:\n   *\n   * - `owner` cannot be the zero address.\n   * - `spender` cannot be the zero address.\n   */\n  function _approve(\n    address owner,\n    address spender,\n    uint256 amount\n  ) internal virtual {\n    require(owner != address(0), 'ERC20: approve from the zero address');\n    require(spender != address(0), 'ERC20: approve to the zero address');\n\n    _allowances[owner][spender] = amount;\n    emit Approval(owner, spender, amount);\n  }\n\n  /**\n   * @dev Sets {decimals} to a value other than the default one of 18.\n   *\n   * WARNING: This function should only be called from the constructor. Most\n   * applications that interact with token contracts will not expect\n   * {decimals} to ever change, and may work incorrectly if it does.\n   */\n  function _setupDecimals(uint8 decimals_) internal {\n    _decimals = decimals_;\n  }\n\n  /**\n   * @dev Hook that is called before any transfer of tokens. This includes\n   * minting and burning.\n   *\n   * Calling conditions:\n   *\n   * - when `from` and `to` are both non-zero, `amount` of ``from``'s tokens\n   * will be to transferred to `to`.\n   * - when `from` is zero, `amount` tokens will be minted for `to`.\n   * - when `to` is zero, `amount` of ``from``'s tokens will be burned.\n   * - `from` and `to` are never both zero.\n   *\n   * To learn more about hooks, head to xref:ROOT:extending-contracts.adoc#using-hooks[Using Hooks].\n   */\n  function _beforeTokenTransfer(\n    address from,\n    address to,\n    uint256 amount\n  ) internal virtual {}\n}\n\n// File: @openzeppelin\\contracts\\token\\ERC20\\SafeERC20.sol\n\npragma solidity ^0.6.0;\n\n/**\n * @title SafeERC20\n * @dev Wrappers around ERC20 operations that throw on failure (when the token\n * contract returns false). Tokens that return no value (and instead revert or\n * throw on failure) are also supported, non-reverting calls are assumed to be\n * successful.\n * To use this library you can add a `using SafeERC20 for IERC20;` statement to your contract,\n * which allows you to call the safe operations as `token.safeTransfer(...)`, etc.\n */\nlibrary SafeERC20 {\n  using SafeMath for uint256;\n  using Address for address;\n\n  function safeTransfer(\n    IERC20 token,\n    address to,\n    uint256 value\n  ) internal {\n    _callOptionalReturn(\n      token,\n      abi.encodeWithSelector(token.transfer.selector, to, value)\n    );\n  }\n\n  function safeTransferFrom(\n    IERC20 token,\n    address from,\n    address to,\n    uint256 value\n  ) internal {\n    _callOptionalReturn(\n      token,\n      abi.encodeWithSelector(token.transferFrom.selector, from, to, value)\n    );\n  }\n\n  /**\n   * @dev Deprecated. This function has issues similar to the ones found in\n   * {IERC20-approve}, and its usage is discouraged.\n   *\n   * Whenever possible, use {safeIncreaseAllowance} and\n   * {safeDecreaseAllowance} instead.\n   */\n  function safeApprove(\n    IERC20 token,\n    address spender,\n    uint256 value\n  ) internal {\n    // safeApprove should only be called when setting an initial allowance,\n    // or when resetting it to zero. To increase and decrease it, use\n    // 'safeIncreaseAllowance' and 'safeDecreaseAllowance'\n    // solhint-disable-next-line max-line-length\n    require(\n      (value == 0) || (token.allowance(address(this), spender) == 0),\n      'SafeERC20: approve from non-zero to non-zero allowance'\n    );\n    _callOptionalReturn(\n      token,\n      abi.encodeWithSelector(token.approve.selector, spender, value)\n    );\n  }\n\n  function safeIncreaseAllowance(\n    IERC20 token,\n    address spender,\n    uint256 value\n  ) internal {\n    uint256 newAllowance = token.allowance(address(this), spender).add(value);\n    _callOptionalReturn(\n      token,\n      abi.encodeWithSelector(token.approve.selector, spender, newAllowance)\n    );\n  }\n\n  function safeDecreaseAllowance(\n    IERC20 token,\n    address spender,\n    uint256 value\n  ) internal {\n    uint256 newAllowance = token.allowance(address(this), spender).sub(\n      value,\n      'SafeERC20: decreased allowance below zero'\n    );\n    _callOptionalReturn(\n      token,\n      abi.encodeWithSelector(token.approve.selector, spender, newAllowance)\n    );\n  }\n\n  /**\n   * @dev Imitates a Solidity high-level call (i.e. a regular function call to a contract), relaxing the requirement\n   * on the return value: the return value is optional (but if data is returned, it must not be false).\n   * @param token The token targeted by the call.\n   * @param data The call data (encoded using abi.encode or one of its variants).\n   */\n  function _callOptionalReturn(IERC20 token, bytes memory data) private {\n    // We need to perform a low level call here, to bypass Solidity's return data size checking mechanism, since\n    // we're implementing it ourselves. We use {Address.functionCall} to perform this call, which verifies that\n    // the target address contains contract code and also asserts for success in the low-level call.\n\n    bytes memory returndata = address(token).functionCall(\n      data,\n      'SafeERC20: low-level call failed'\n    );\n    if (returndata.length > 0) {\n      // Return data is optional\n      // solhint-disable-next-line max-line-length\n      require(\n        abi.decode(returndata, (bool)),\n        'SafeERC20: ERC20 operation did not succeed'\n      );\n    }\n  }\n}\n\n// FrenchieDAO Contract version 0.1 Initial DAO\n// By @SpiryBTC and @developerdavi\n//\n// THANKS TO THE COMMUNITY & THE TEAM BEHIND IT\n//\n//                   Frenchie.so / Frenchie.tech\n//\n// Supported by #FrenchieNetwork t.me/FrenchieNetwork\n\npragma solidity ^0.6.6;\npragma experimental ABIEncoderV2;\n\nabstract contract ERC20Interface {\n  function balanceOf(address whom) public virtual view returns (uint256);\n}\n\ncontract FrenchieDAO is ERC20 {\n  using SafeERC20 for IERC20;\n  using SafeMath for uint256;\n  address public frenAddress;\n  IERC20 private frenIERC20;\n  uint sumOfProposalVotes;\n\n\n  struct status {\n    bool isAdmin;\n  }\n  mapping(address => status) private currentAdmins;\n\n  struct frenVoted {\n    uint256 votes;\n    address proposalAddr;\n    string proposalQuestion;\n    string option;\n  }\n\n  mapping(address => frenVoted) private frenVotes;\n  string public topOption;\n  uint256 public topVotes;\n\n  struct proposal {\n    \n    string proposalQuestion;\n    address proposer;\n    string[] options;\n    string[] optionImgs;\n    uint256[] optionVotes;\n    uint256 endBlock;\n  }\n\n  mapping(address => proposal) private eachProposal;\n\n  address[] public proposals;\n\n  modifier _isAdmin() {\n    require(currentAdmins[msg.sender].isAdmin, 'You do not have permission.');\n    _;\n  }\n/// @notice The EIP-712 typehash for the contract's domain\n  bytes32 public constant DOMAIN_TYPEHASH = keccak256(\"EIP712Domain(string name,uint256 chainId,address verifyingContract)\");\n  \n  event proposalCreated(address indexed proposer, string question);\n\n  event votedForProposal(address indexed voter, string question, string option);\n\n  event frenWithdrawn(address indexed voter, uint256 amount);\n\n  event newAdminAdded(address indexed admin, address newAdmin);\n\n  event adminRemoved(address indexed admin, address removedAdmin);\n\n  constructor(address _frenddress) public ERC20('FrenchieDAO', 'FrenDAO') {\n    currentAdmins[msg.sender].isAdmin = true;\n    frenAddress = _frenddress;\n    frenIERC20 = IERC20(frenAddress);\n  }\n\n  function getFrenBalance() public view returns (uint256) {\n    return ERC20Interface(frenAddress).balanceOf(msg.sender);\n  }\n\n  function getProposals() public view returns (address[] memory) {\n    return proposals;\n  }\n\n  function setFrenAddress(address _addr) public _isAdmin {\n    frenAddress = _addr;\n    frenIERC20 = IERC20(frenAddress);\n  }\n\n  function getBlockNumber() public view returns (uint256) {\n    return block.number;\n  }\n\n  function createProposal(\n    string memory _proposalQuestion,\n    address _proposer,\n    string[] memory _options,\n    string[] memory _optionImgs,\n    uint256 _endBlock\n  ) public _isAdmin {\n    eachProposal[msg.sender].proposalQuestion = _proposalQuestion;\n    eachProposal[msg.sender].proposer = _proposer;\n    eachProposal[msg.sender].options = _options;\n    eachProposal[msg.sender].optionImgs = _optionImgs;\n    eachProposal[msg.sender].endBlock = _endBlock;\n    delete eachProposal[msg.sender].optionVotes;\n    for (uint256 i = 0; i < _options.length; i++) {\n      eachProposal[msg.sender].optionVotes.push(0);\n    }\n\n    topOption = '';\n    topVotes = 0;\n    delete proposals;\n    proposals.push(msg.sender);\n    emit proposalCreated(_proposer, _proposalQuestion);\n  }\n\n  function getProposal(address _proposal)\n    public\n    view\n    returns (\n      string memory,\n      address,\n      string[] memory,\n      string[] memory,\n      uint256[] memory,\n      uint256\n    )\n  {\n    return (\n      eachProposal[_proposal].proposalQuestion,\n      eachProposal[_proposal].proposer,\n      eachProposal[_proposal].options,\n      eachProposal[_proposal].optionImgs,\n      eachProposal[_proposal].optionVotes,\n      eachProposal[_proposal].endBlock\n    );\n  }\n\n  function voteForProposal(\n    uint256 _amount,\n    uint256 _optionIndex,\n    address _proposalAddr\n  ) public {\n    require(\n      block.number < eachProposal[_proposalAddr].endBlock,\n      'Voting is already over!'\n    );\n\n    frenIERC20.safeTransferFrom(msg.sender, address(this), _amount);\n\n    frenVotes[msg.sender].votes = frenVotes[msg.sender].votes.add(_amount);\n    frenVotes[msg.sender].proposalAddr = _proposalAddr;\n    frenVotes[msg.sender].proposalQuestion = eachProposal[_proposalAddr]\n      .proposalQuestion;\n    frenVotes[msg.sender].option = eachProposal[_proposalAddr]\n      .options[_optionIndex];\n\n    eachProposal[_proposalAddr]\n      .optionVotes[_optionIndex] = eachProposal[_proposalAddr]\n      .optionVotes[_optionIndex]\n      .add(_amount);\n\n    if (eachProposal[_proposalAddr].optionVotes[_optionIndex] > topVotes) {\n      topOption = eachProposal[_proposalAddr].options[_optionIndex];\n      topVotes = eachProposal[_proposalAddr].optionVotes[_optionIndex];\n    }\n\n    emit votedForProposal(\n      msg.sender,\n      eachProposal[_proposalAddr].proposalQuestion,\n      frenVotes[msg.sender].option\n    );\n  }\n\n  function withdrawFren() public {\n    require(\n      block.number > eachProposal[proposals[0]].endBlock,\n      'Voting has not ended yet!'\n    );\n    address propAddr = frenVotes[msg.sender].proposalAddr;\n    string memory propQuestion = frenVotes[msg.sender].proposalQuestion;\n    string memory currentQuestion = eachProposal[propAddr].proposalQuestion;\n    if (keccak256(bytes(propQuestion)) == keccak256(bytes(currentQuestion))) {\n      require(eachProposal[propAddr].endBlock < block.number);\n    }\n\n    uint256 amount = frenVotes[msg.sender].votes;\n    frenIERC20.safeTransfer(msg.sender, amount);\n    frenVotes[msg.sender].votes = frenVotes[msg.sender].votes.sub(amount);\n    emit frenWithdrawn(msg.sender, amount);\n  }\n\n  function addAdmin(address _admin) public _isAdmin {\n    currentAdmins[_admin].isAdmin = true;\n    emit newAdminAdded(msg.sender, _admin);\n  }\n\n  function removeAdmin(address _admin) public _isAdmin {\n    currentAdmins[_admin].isAdmin = false;\n    emit adminRemoved(msg.sender, _admin);\n  }\n\n  function depositETH(uint256 amount) public payable {\n    require(msg.value == amount);\n  }\n}",
  "sourcePath": "/home/devdavi/www/spiry/frenchie-contracts/contracts/FrenchieDAO.sol",
  "compiler": {
    "name": "solc",
    "version": "0.6.6+commit.6c089d02.Linux.g++"
  },
  "schemaVersion": "3.4.0",
  "updatedAt": "2021-05-05T16:46:46.411Z",
  "devdoc": {
    "methods": {
      "allowance(address,address)": {
        "details": "See {IERC20-allowance}."
      },
      "approve(address,uint256)": {
        "details": "See {IERC20-approve}.   * Requirements:   * - `spender` cannot be the zero address."
      },
      "balanceOf(address)": {
        "details": "See {IERC20-balanceOf}."
      },
      "decimals()": {
        "details": "Returns the number of decimals used to get its user representation. For example, if `decimals` equals `2`, a balance of `505` tokens should be displayed to a user as `5,05` (`505 / 10 ** 2`).   * Tokens usually opt for a value of 18, imitating the relationship between Ether and Wei. This is the value {ERC20} uses, unless {_setupDecimals} is called.   * NOTE: This information is only used for _display_ purposes: it in no way affects any of the arithmetic of the contract, including {IERC20-balanceOf} and {IERC20-transfer}."
      },
      "decreaseAllowance(address,uint256)": {
        "details": "Atomically decreases the allowance granted to `spender` by the caller.   * This is an alternative to {approve} that can be used as a mitigation for problems described in {IERC20-approve}.   * Emits an {Approval} event indicating the updated allowance.   * Requirements:   * - `spender` cannot be the zero address. - `spender` must have allowance for the caller of at least `subtractedValue`."
      },
      "increaseAllowance(address,uint256)": {
        "details": "Atomically increases the allowance granted to `spender` by the caller.   * This is an alternative to {approve} that can be used as a mitigation for problems described in {IERC20-approve}.   * Emits an {Approval} event indicating the updated allowance.   * Requirements:   * - `spender` cannot be the zero address."
      },
      "name()": {
        "details": "Returns the name of the token."
      },
      "symbol()": {
        "details": "Returns the symbol of the token, usually a shorter version of the name."
      },
      "totalSupply()": {
        "details": "See {IERC20-totalSupply}."
      },
      "transfer(address,uint256)": {
        "details": "See {IERC20-transfer}.   * Requirements:   * - `recipient` cannot be the zero address. - the caller must have a balance of at least `amount`."
      },
      "transferFrom(address,address,uint256)": {
        "details": "See {IERC20-transferFrom}.   * Emits an {Approval} event indicating the updated allowance. This is not required by the EIP. See the note at the beginning of {ERC20};   * Requirements: - `sender` and `recipient` cannot be the zero address. - `sender` must have a balance of at least `amount`. - the caller must have allowance for ``sender``'s tokens of at least `amount`."
      }
    }
  },
  "userdoc": {
    "methods": {}
  }
}